{
  "_format": "hh-sol-artifact-1",
  "contractName": "HelloWorld",
  "sourceName": "contracts/HelloWorld.sol",
  "abi": [
    {
      "inputs": [],
      "stateMutability": "nonpayable",
      "type": "constructor"
    },
    {
      "inputs": [],
      "name": "contractOwner",
      "outputs": [
        {
          "internalType": "address",
          "name": "",
          "type": "address"
        }
      ],
      "stateMutability": "view",
      "type": "function"
    },
    {
      "inputs": [],
      "name": "dec",
      "outputs": [
        {
          "internalType": "bool",
          "name": "",
          "type": "bool"
        }
      ],
      "stateMutability": "nonpayable",
      "type": "function"
    },
    {
      "inputs": [],
      "name": "getNum",
      "outputs": [
        {
          "internalType": "uint256",
          "name": "",
          "type": "uint256"
        }
      ],
      "stateMutability": "view",
      "type": "function"
    },
    {
      "inputs": [],
      "name": "inc",
      "outputs": [
        {
          "internalType": "bool",
          "name": "",
          "type": "bool"
        }
      ],
      "stateMutability": "nonpayable",
      "type": "function"
    },
    {
      "inputs": [],
      "name": "num",
      "outputs": [
        {
          "internalType": "uint256",
          "name": "",
          "type": "uint256"
        }
      ],
      "stateMutability": "view",
      "type": "function"
    }
  ],
  "bytecode": "0x60806040526000805534801561001457600080fd5b5061005d6040518060400160405280600b81526020017f48656c6c6f20576f726c640000000000000000000000000000000000000000008152506100a360201b6102781760201c565b33600160006101000a81548173ffffffffffffffffffffffffffffffffffffffff021916908373ffffffffffffffffffffffffffffffffffffffff160217905550610226565b61013f816040516024016100b791906101a4565b6040516020818303038152906040527f41304fac000000000000000000000000000000000000000000000000000000007bffffffffffffffffffffffffffffffffffffffffffffffffffffffff19166020820180517bffffffffffffffffffffffffffffffffffffffffffffffffffffffff838183161783525050505061014260201b60201c565b50565b60008151905060006a636f6e736f6c652e6c6f679050602083016000808483855afa5050505050565b6000610176826101c6565b61018081856101d1565b93506101908185602086016101e2565b61019981610215565b840191505092915050565b600060208201905081810360008301526101be818461016b565b905092915050565b600081519050919050565b600082825260208201905092915050565b60005b838110156102005780820151818401526020810190506101e5565b8381111561020f576000848401525b50505050565b6000601f19601f8301169050919050565b610630806102356000396000f3fe608060405234801561001057600080fd5b50600436106100575760003560e01c8063371303c01461005c5780634e70b1dc1461007a57806367e0badb14610098578063b3bcfa82146100b6578063ce606ee0146100d4575b600080fd5b6100646100f2565b6040516100719190610421565b60405180910390f35b610082610152565b60405161008f919061047e565b60405180910390f35b6100a0610158565b6040516100ad919061047e565b60405180910390f35b6100be6101f2565b6040516100cb9190610421565b60405180910390f35b6100dc610252565b6040516100e99190610406565b60405180910390f35b6000600160008082825461010691906104b5565b9250508190555061014b6040518060400160405280601681526020017f4e756d20686173206265656e20696e6372656173656400000000000000000000815250610278565b6001905090565b60005481565b6000600160009054906101000a900473ffffffffffffffffffffffffffffffffffffffff1673ffffffffffffffffffffffffffffffffffffffff163373ffffffffffffffffffffffffffffffffffffffff16146101ea576040517f08c379a00000000000000000000000000000000000000000000000000000000081526004016101e19061045e565b60405180910390fd5b600054905090565b60006001600080828254610206919061050b565b9250508190555061024b6040518060400160405280601681526020017f4e756d20686173206265656e2064656372656173656400000000000000000000815250610278565b6001905090565b600160009054906101000a900473ffffffffffffffffffffffffffffffffffffffff1681565b61030e8160405160240161028c919061043c565b6040516020818303038152906040527f41304fac000000000000000000000000000000000000000000000000000000007bffffffffffffffffffffffffffffffffffffffffffffffffffffffff19166020820180517bffffffffffffffffffffffffffffffffffffffffffffffffffffffff8381831617835250505050610311565b50565b60008151905060006a636f6e736f6c652e6c6f679050602083016000808483855afa5050505050565b6103438161053f565b82525050565b61035281610551565b82525050565b600061036382610499565b61036d81856104a4565b935061037d818560208601610587565b610386816105e9565b840191505092915050565b600061039e602a836104a4565b91507f4f6e6c7920636f6e7472616374206f776e65722063616e2063616c6c2074686960008301527f732066756e6374696f6e000000000000000000000000000000000000000000006020830152604082019050919050565b6104008161057d565b82525050565b600060208201905061041b600083018461033a565b92915050565b60006020820190506104366000830184610349565b92915050565b600060208201905081810360008301526104568184610358565b905092915050565b6000602082019050818103600083015261047781610391565b9050919050565b600060208201905061049360008301846103f7565b92915050565b600081519050919050565b600082825260208201905092915050565b60006104c08261057d565b91506104cb8361057d565b9250827fffffffffffffffffffffffffffffffffffffffffffffffffffffffffffffffff03821115610500576104ff6105ba565b5b828201905092915050565b60006105168261057d565b91506105218361057d565b925082821015610534576105336105ba565b5b828203905092915050565b600061054a8261055d565b9050919050565b60008115159050919050565b600073ffffffffffffffffffffffffffffffffffffffff82169050919050565b6000819050919050565b60005b838110156105a557808201518184015260208101905061058a565b838111156105b4576000848401525b50505050565b7f4e487b7100000000000000000000000000000000000000000000000000000000600052601160045260246000fd5b6000601f19601f830116905091905056fea26469706673582212205ae4f8be35a00389eeb7fe7aadda95ccfef176fff1e249691448badce4f81d3364736f6c63430008000033",
  "linkReferences": {},
  "deployedLinkReferences": {}
}